:020000040000FA
:1000000020200020150200001D0200001F02000039
:100010002102000023020000250200000000000071
:1000200000000000000000000000000027020000A7
:1000300029020000000000002B0200002D02000039
:100040002F0200002F020000790500002F0200009F
:100050002F0200002F0200002F0200002F020000DC
:100060002F0200002F0200002F0200002F020000CC
:100070002F0200002F0200002F0200002F020000BC
:100080002F0200002F0200002F0200002F020000AC
:100090002F0200002F0200002F0200002F0200009C
:1000A0002F0200002F0200002F0200002F0200008C
:1000B0002F0200002F0200000000000000000000DE
:1000C0002F0200002F0200002F0200002F0200006C
:1000D0002F0200002F0200002F020000000000008D
:1000E0000000000000000000000000000000000010
:1000F0000000000000000000000000000000000000
:1001000000000000000000000000000000000000EF
:1001100000000000000000000000000000000000DF
:1001200000000000000000000000000000000000CF
:1001300000000000000000000000000000000000BF
:1001400000000000000000000000000000000000AF
:10015000000000000000000000000000000000009F
:10016000000000000000000000000000000000008F
:10017000000000000000000000000000000000007F
:10018000000000000000000000000000000000006F
:10019000000000000000000000000000000000005F
:1001A000000000000000000000000000000000004F
:1001B000000000000000000000000000000000003F
:1001C000000000000000000000000000000000002F
:1001D000000000000000000000000000000000001F
:1001E000000000000000000000000000000000000F
:1001F00000000000000000000000000000000000FF
:10020000DFF80CD000F018F800480047A505000002
:10021000202000200648804706480047FEE7FEE70A
:10022000FEE7FEE7FEE7FEE7FEE7FEE7FEE7FEE7A6
:100230005D02000001020000064C074D06E0E06888
:1002400040F0010394E8070098471034AC42F6D31D
:10025000FFF7DAFF4807000068070000F0B5B5486F
:100260000023021D0178101D01254FF0805406293E
:100270000BD11678360708D10678C6F30316032E7D
:1002800006D0042E04D0052E02D0062907D00EE099
:10029000B4F82463A84FC6F304263E6002E0167843
:1002A000360704D10678C6F30316032E02D00629BA
:1002B00004D00FE0A24FA14E7E670EE016783607FD
:1002C00008D10678C6F30316032E06D0042E04D0F8
:1002D000052E02D0062907D00EE0D4F84462994FCB
:1002E000C6F342363E6002E01678360704D106783F
:1002F000C6F30316032E02D0062906D011E0924E53
:10030000376827F0807737600EE01678360708D117
:100310000678C6F30316032E06D0042E04D0052E4D
:1003200002D006290AD011E04FF08046C6F80C3101
:10033000C6F81031834E361F336002E01678360758
:1003400004D10678C6F30316032E02D0062905D081
:100350000CE07C4F032664373E600AE016783607CF
:1003600004D10678C6F30316032E02D006290DD059
:1003700014E0764F05263E60744E78363560734E35
:10038000083633603F263F1D3E6002E01678360790
:1003900004D10678C6F30316052E02D0062957D0DD
:1003A00062E06B4E36686B4F3E60694E361D3668B4
:1003B0003F1D3E60664E083636683F1D3E60644E07
:1003C0000C3636683F1D3E60614E103636683F1D64
:1003D0003E605F4E143636683F1D3E605C4E1836F8
:1003E00036685C4F20373E60594E1C3636683F1DDC
:1003F0003E60574E203636683F1D3E60544E2436D0
:1004000036683F1D3E60524E283636683F1D3E60BE
:100410004F4E2C3636683F1D3E604D4E30363668A6
:100420004C4F40373E604A4E343636683F1D3E6082
:10043000474E383636683F1D3E60454E3C3636687E
:100440003F1D3E60424E403636683F1D3E6002E032
:100450001678360708D10678C6F30316032E06D0A1
:10046000042E04D0052E02D0062907D019E0D4F8B6
:100470005812394A01F04F01116002E01178090762
:100480000FD10078C0F30310032803D0042801D053
:10049000052806D131480168C90702D06FF0010173
:1004A0000160D4F83001062808D1D4F834010628B8
:1004B00004D12B48016841F48061016022487438FE
:1004C000016841F470010160BFF34F8FBFF36F8F7C
:1004D0004FF01021D1F80002002803DBD1F804020C
:1004E000002822DA1F4A15601F480468002CFCD03F
:1004F0001524C1F800420568002DFCD0C1F8044263
:1005000001680029FCD0136001680029FCD0BFF30A
:100510004F8F0D48F0380168144A01F4E06111432F
:100520000160BFF34F8F00BFFDE71249104808601C
:10053000F0BD0000E00F00F0403501400DF0ADBA15
:1005400000C007403C050040FCED00E010560040B4
:100550000404001020C50040E40E004000040040E8
:100560003C17004004E5014000E401400400FA05A6
:100570000090D0031C0000200148006800470000E4
:100580001400002002E008C8121F08C1002AFAD196
:1005900070477047002001E001C1121F002AFBD103
:1005A000704700004749002008604FF4FE27464C82
:1005B0003868464DA06029680029FCD079686160E0
:1005C00029680029FCD04FF4C048012810D0022827
:1005D0000ED0384600F082F828680028FCD0D8F801
:1005E000001040463A4A1140B1F1005F4AD068E03D
:1005F0005FF0000608EB063000F070F8286800286D
:10060000FCD0761C1A2EF5D300260AE04FF40031F8
:1006100006F5C040895900F079F828680028FCD018
:10062000361D60688642F1D30020616807E000BF94
:100630004FF400322388125A5A402280001D88420B
:10064000F6D32288B968384691423AD100F046F88C
:1006500028680028FCD01F4E05254FF47A47741CEB
:100660003846A0476D1EFAD1BFF34F8F1548001DC5
:100670000168194A01F4E06111430160BFF34F8F33
:1006800000BFFDE742682261E260006880F30888ED
:100690004FF0E0210020D1F80041012505FA00F3D8
:1006A00023420AD043B203F01F0605FA06F15B09A4
:1006B0009B0003F1E023C3F88011401C2028EDD3F8
:1006C0009047FEE708ED00E00000002000E4014054
:1006D0000000FE2F400700000400FA05094902222D
:1006E0000A60BFF36F8FBFF34F8F0A1D106006487B
:1006F0000268002AFCD000200860BFF36F8FBFF3B0
:100700004F8F704704E5014000E40140094A01238E
:100710001360BFF36F8FBFF34F8F0160064801680E
:100720000029FCD000201060BFF36F8FBFF34F8F04
:100730007047000004E5014000E4014000000000B3
:100740000338FDD870470000680700000000002053
:100750002000000084050000880700002000002021
:1007600000200000940500000000000000000000D0
:100770000000000000000000000000000000000079
:08078000000000000090D0030E
:0400000500000201F4
:00000001FF
