:020000040000FA
:1000000020200020150200001D0200001F02000039
:100010002102000023020000250200000000000071
:1000200000000000000000000000000027020000A7
:1000300029020000000000002B0200002D02000039
:100040002F0200002F020000390400002F020000E0
:100050002F0200002F0200002F0200002F020000DC
:100060002F0200002F0200002F0200002F020000CC
:100070002F0200002F0200002F0200002F020000BC
:100080002F0200002F0200002F0200002F020000AC
:100090002F0200002F0200002F0200002F0200009C
:1000A0002F0200002F0200002F0200002F0200008C
:1000B0002F0200002F0200000000000000000000DE
:1000C0002F0200002F0200002F0200002F0200006C
:1000D0002F0200002F0200002F0200002F0200005C
:1000E0002F0200002F0200002F020000000000007D
:1000F000000000002F020000000000002F0200009E
:1001000000000000000000000000000000000000EF
:1001100000000000000000000000000000000000DF
:1001200000000000000000000000000000000000CF
:1001300000000000000000000000000000000000BF
:1001400000000000000000000000000000000000AF
:10015000000000000000000000000000000000009F
:10016000000000000000000000000000000000008F
:10017000000000000000000000000000000000007F
:10018000000000000000000000000000000000006F
:10019000000000000000000000000000000000005F
:1001A000000000000000000000000000000000004F
:1001B000000000000000000000000000000000003F
:1001C000000000000000000000000000000000002F
:1001D000000000000000000000000000000000001F
:1001E000000000000000000000000000000000000F
:1001F00000000000000000000000000000000000FF
:10020000DFF80CD000F018F8004800476504000043
:10021000202000200648804706480047FEE7FEE70A
:10022000FEE7FEE7FEE7FEE7FEE7FEE7FEE7FEE7A6
:100230005D02000001020000064C074D06E0E06888
:1002400040F0010394E8070098471034AC42F6D31D
:10025000FFF7DAFF080600002806000030B54FF06F
:10026000805000228300D0F83011C3F80C21C3F86D
:100270001021624B1A60624B1B68624C2360604B1A
:100280001B1D1B68241D23605D4B08331B68241D48
:1002900023605B4B0C331B68241D2360584B1033C9
:1002A0001B68241D2360564B14331B68241D2360D8
:1002B000534B18331B68534C20342360504B1C3372
:1002C0001B68241D23604E4B20331B68241D2360B4
:1002D0004B4B24331B68241D2360494B28331B6878
:1002E000241D2360464B2C331B68241D2360444B84
:1002F00030331B68434C40342360414B34331B681C
:10030000241D23603E4B38331B68241D23603C4B67
:100310003C331B68241D2360394B40331B68241D6C
:1003200023600124082902D1D0F8343113B10829FF
:1003300004D006E0354B3449196005E0D0F834317B
:1003400013B1082904D006E0314BFB21196005E008
:10035000D0F8343113B1082908D00EE090F85832A3
:100360002C48016863F30301016002E0D0F83431E6
:100370001BB929494FF40070086028480168C90773
:1003800002D06FF0010101602548016841F470015D
:100390000160BFF34F8FBFF36F8F4FF01021D1F883
:1003A0000002002803DBD1F80402002822DA1D4BEA
:1003B0001C601D480468002CFCD01224C1F80042C7
:1003C0000568002DFCD0C1F8044201680029FCD06A
:1003D0001A6001680029FCD0BFF34F8F10487C38A9
:1003E0000168124A01F4E06111430160BFF34F8FCD
:1003F00000BFFDE70F490E48086030BD38050040DA
:100400000404001020C50040488103008C560040C1
:1004100018F50040E40E0040409602400004004001
:1004200088ED00E004E5014000E401400400FA0525
:100430000090D0031C000020014800680047000025
:100440001400002002E008C8121F08C1002AFAD1D7
:1004500070477047002001E001C1121F002AFBD144
:10046000704700004749002008604FF4FE27464CC3
:100470003868464DA06029680029FCD07968616021
:1004800029680029FCD04FF4C048012810D0022868
:100490000ED0384600F082F828680028FCD0D8F842
:1004A000001040463A4A1140B1F1005F4AD068E07E
:1004B0005FF0000608EB063000F070F828680028AE
:1004C000FCD0761C1A2EF5D300260AE04FF400313A
:1004D00006F5C040895900F079F828680028FCD05A
:1004E000361D60688642F1D30020616807E000BFD6
:1004F0004FF400322388125A5A402280001D88424D
:10050000F6D32288B968384691423AD100F046F8CD
:1005100028680028FCD01F4E05254FF47A47741C2C
:100520003846A0476D1EFAD1BFF34F8F1548001D06
:100530000168194A01F4E06111430160BFF34F8F74
:1005400000BFFDE742682261E260006880F308882E
:100550004FF0E0210020D1F80041012505FA00F319
:1005600023420AD043B203F01F0605FA06F15B09E5
:100570009B0003F1E023C3F88011401C2028EDD339
:100580009047FEE708ED00E00000002000E4014095
:100590000000FE2F000600000400FA0509490222AF
:1005A0000A60BFF36F8FBFF34F8F0A1D10600648BC
:1005B0000268002AFCD000200860BFF36F8FBFF3F1
:1005C0004F8F704704E5014000E40140094A0123D0
:1005D0001360BFF36F8FBFF34F8F01600648016850
:1005E0000029FCD000201060BFF36F8FBFF34F8F46
:1005F0007047000004E5014000E4014000000000F5
:100600000338FDD8704700002806000000000020D5
:1006100020000000440400004806000020000020E4
:100620000020000054040000000000000000000052
:1006300000000000000000000000000000000000BA
:08064000000000000090D0034F
:0400000500000201F4
:00000001FF
